{
  "_format": "hh-sol-artifact-1",
  "contractName": "Fish",
  "sourceName": "contracts/Fish.sol",
  "abi": [
    {
      "inputs": [],
      "stateMutability": "nonpayable",
      "type": "constructor"
    },
    {
      "anonymous": false,
      "inputs": [
        {
          "indexed": true,
          "internalType": "address",
          "name": "owner",
          "type": "address"
        },
        {
          "indexed": true,
          "internalType": "address",
          "name": "spender",
          "type": "address"
        },
        {
          "indexed": false,
          "internalType": "uint256",
          "name": "value",
          "type": "uint256"
        }
      ],
      "name": "Approval",
      "type": "event"
    },
    {
      "anonymous": false,
      "inputs": [
        {
          "indexed": true,
          "internalType": "address",
          "name": "from",
          "type": "address"
        }
      ],
      "name": "Bought",
      "type": "event"
    },
    {
      "anonymous": false,
      "inputs": [
        {
          "indexed": true,
          "internalType": "address",
          "name": "from",
          "type": "address"
        },
        {
          "indexed": false,
          "internalType": "string",
          "name": "name",
          "type": "string"
        },
        {
          "indexed": false,
          "internalType": "uint256",
          "name": "amount",
          "type": "uint256"
        }
      ],
      "name": "Donate",
      "type": "event"
    },
    {
      "anonymous": false,
      "inputs": [
        {
          "indexed": true,
          "internalType": "address",
          "name": "previousOwner",
          "type": "address"
        },
        {
          "indexed": true,
          "internalType": "address",
          "name": "newOwner",
          "type": "address"
        }
      ],
      "name": "OwnershipTransferred",
      "type": "event"
    },
    {
      "anonymous": false,
      "inputs": [
        {
          "indexed": true,
          "internalType": "address",
          "name": "from",
          "type": "address"
        },
        {
          "indexed": true,
          "internalType": "address",
          "name": "to",
          "type": "address"
        },
        {
          "indexed": false,
          "internalType": "uint256",
          "name": "value",
          "type": "uint256"
        }
      ],
      "name": "Transfer",
      "type": "event"
    },
    {
      "inputs": [
        {
          "internalType": "address",
          "name": "owner",
          "type": "address"
        },
        {
          "internalType": "address",
          "name": "spender",
          "type": "address"
        }
      ],
      "name": "allowance",
      "outputs": [
        {
          "internalType": "uint256",
          "name": "",
          "type": "uint256"
        }
      ],
      "stateMutability": "view",
      "type": "function"
    },
    {
      "inputs": [
        {
          "internalType": "address",
          "name": "spender",
          "type": "address"
        },
        {
          "internalType": "uint256",
          "name": "amount",
          "type": "uint256"
        }
      ],
      "name": "approve",
      "outputs": [
        {
          "internalType": "bool",
          "name": "",
          "type": "bool"
        }
      ],
      "stateMutability": "nonpayable",
      "type": "function"
    },
    {
      "inputs": [
        {
          "internalType": "address",
          "name": "account",
          "type": "address"
        }
      ],
      "name": "balanceOf",
      "outputs": [
        {
          "internalType": "uint256",
          "name": "",
          "type": "uint256"
        }
      ],
      "stateMutability": "view",
      "type": "function"
    },
    {
      "inputs": [
        {
          "internalType": "uint256",
          "name": "amount",
          "type": "uint256"
        }
      ],
      "name": "burn",
      "outputs": [],
      "stateMutability": "nonpayable",
      "type": "function"
    },
    {
      "inputs": [
        {
          "internalType": "address",
          "name": "account",
          "type": "address"
        },
        {
          "internalType": "uint256",
          "name": "amount",
          "type": "uint256"
        }
      ],
      "name": "burnFrom",
      "outputs": [],
      "stateMutability": "nonpayable",
      "type": "function"
    },
    {
      "inputs": [],
      "name": "buy",
      "outputs": [],
      "stateMutability": "payable",
      "type": "function"
    },
    {
      "inputs": [],
      "name": "decimals",
      "outputs": [
        {
          "internalType": "uint8",
          "name": "",
          "type": "uint8"
        }
      ],
      "stateMutability": "pure",
      "type": "function"
    },
    {
      "inputs": [
        {
          "internalType": "address",
          "name": "spender",
          "type": "address"
        },
        {
          "internalType": "uint256",
          "name": "subtractedValue",
          "type": "uint256"
        }
      ],
      "name": "decreaseAllowance",
      "outputs": [
        {
          "internalType": "bool",
          "name": "",
          "type": "bool"
        }
      ],
      "stateMutability": "nonpayable",
      "type": "function"
    },
    {
      "inputs": [
        {
          "internalType": "string",
          "name": "name",
          "type": "string"
        }
      ],
      "name": "donate",
      "outputs": [],
      "stateMutability": "payable",
      "type": "function"
    },
    {
      "inputs": [
        {
          "internalType": "uint256",
          "name": "",
          "type": "uint256"
        }
      ],
      "name": "donations",
      "outputs": [
        {
          "internalType": "address",
          "name": "walletAddress",
          "type": "address"
        },
        {
          "internalType": "string",
          "name": "name",
          "type": "string"
        },
        {
          "internalType": "uint256",
          "name": "amount",
          "type": "uint256"
        }
      ],
      "stateMutability": "view",
      "type": "function"
    },
    {
      "inputs": [
        {
          "internalType": "address",
          "name": "",
          "type": "address"
        }
      ],
      "name": "donators",
      "outputs": [
        {
          "internalType": "address",
          "name": "walletAddress",
          "type": "address"
        },
        {
          "internalType": "string",
          "name": "name",
          "type": "string"
        },
        {
          "internalType": "uint256",
          "name": "amount",
          "type": "uint256"
        }
      ],
      "stateMutability": "view",
      "type": "function"
    },
    {
      "inputs": [
        {
          "internalType": "address",
          "name": "spender",
          "type": "address"
        },
        {
          "internalType": "uint256",
          "name": "addedValue",
          "type": "uint256"
        }
      ],
      "name": "increaseAllowance",
      "outputs": [
        {
          "internalType": "bool",
          "name": "",
          "type": "bool"
        }
      ],
      "stateMutability": "nonpayable",
      "type": "function"
    },
    {
      "inputs": [
        {
          "internalType": "address",
          "name": "to",
          "type": "address"
        },
        {
          "internalType": "uint256",
          "name": "amount",
          "type": "uint256"
        }
      ],
      "name": "mint",
      "outputs": [],
      "stateMutability": "nonpayable",
      "type": "function"
    },
    {
      "inputs": [],
      "name": "name",
      "outputs": [
        {
          "internalType": "string",
          "name": "",
          "type": "string"
        }
      ],
      "stateMutability": "view",
      "type": "function"
    },
    {
      "inputs": [],
      "name": "owner",
      "outputs": [
        {
          "internalType": "address",
          "name": "",
          "type": "address"
        }
      ],
      "stateMutability": "view",
      "type": "function"
    },
    {
      "inputs": [],
      "name": "payout",
      "outputs": [],
      "stateMutability": "nonpayable",
      "type": "function"
    },
    {
      "inputs": [],
      "name": "renounceOwnership",
      "outputs": [],
      "stateMutability": "nonpayable",
      "type": "function"
    },
    {
      "inputs": [],
      "name": "symbol",
      "outputs": [
        {
          "internalType": "string",
          "name": "",
          "type": "string"
        }
      ],
      "stateMutability": "view",
      "type": "function"
    },
    {
      "inputs": [],
      "name": "totalSupply",
      "outputs": [
        {
          "internalType": "uint256",
          "name": "",
          "type": "uint256"
        }
      ],
      "stateMutability": "view",
      "type": "function"
    },
    {
      "inputs": [
        {
          "internalType": "address",
          "name": "to",
          "type": "address"
        },
        {
          "internalType": "uint256",
          "name": "value",
          "type": "uint256"
        }
      ],
      "name": "transfer",
      "outputs": [
        {
          "internalType": "bool",
          "name": "",
          "type": "bool"
        }
      ],
      "stateMutability": "nonpayable",
      "type": "function"
    },
    {
      "inputs": [
        {
          "internalType": "address",
          "name": "from",
          "type": "address"
        },
        {
          "internalType": "address",
          "name": "to",
          "type": "address"
        },
        {
          "internalType": "uint256",
          "name": "value",
          "type": "uint256"
        }
      ],
      "name": "transferFrom",
      "outputs": [
        {
          "internalType": "bool",
          "name": "",
          "type": "bool"
        }
      ],
      "stateMutability": "nonpayable",
      "type": "function"
    },
    {
      "inputs": [
        {
          "internalType": "address",
          "name": "newOwner",
          "type": "address"
        }
      ],
      "name": "transferOwnership",
      "outputs": [],
      "stateMutability": "nonpayable",
      "type": "function"
    },
    {
      "stateMutability": "payable",
      "type": "receive"
    }
  ],
  "bytecode": "0x60806040523480156200001157600080fd5b50604080518082018252600480825263f09f909f60e01b60208084018290528451808601909552918452908301529060036200004e838262000253565b5060046200005d828262000253565b5050506200007a620000746200008e60201b60201c565b62000092565b6200008833610320620000e4565b62000347565b3390565b600580546001600160a01b038381166001600160a01b0319831681179093556040519116919082907f8be0079c531659141344cd1fd0a4f28419497f9722a3daafe3b4186f6b6457e090600090a35050565b6001600160a01b0382166200013f5760405162461bcd60e51b815260206004820152601f60248201527f45524332303a206d696e7420746f20746865207a65726f206164647265737300604482015260640160405180910390fd5b80600260008282546200015391906200031f565b90915550506001600160a01b038216600081815260208181526040808320805486019055518481527fddf252ad1be2c89b69c2b068fc378daa952ba7f163c4a11628f55a4df523b3ef910160405180910390a35050565b505050565b634e487b7160e01b600052604160045260246000fd5b600181811c90821680620001da57607f821691505b602082108103620001fb57634e487b7160e01b600052602260045260246000fd5b50919050565b601f821115620001aa57600081815260208120601f850160051c810160208610156200022a5750805b601f850160051c820191505b818110156200024b5782815560010162000236565b505050505050565b81516001600160401b038111156200026f576200026f620001af565b6200028781620002808454620001c5565b8462000201565b602080601f831160018114620002bf5760008415620002a65750858301515b600019600386901b1c1916600185901b1785556200024b565b600085815260208120601f198616915b82811015620002f057888601518255948401946001909101908401620002cf565b50858210156200030f5787850151600019600388901b60f8161c191681555b5050505050600190811b01905550565b808201808211156200034157634e487b7160e01b600052601160045260246000fd5b92915050565b6114d880620003576000396000f3fe6080604052600436106101395760003560e01c806379cc6790116100ab578063a9059cbb1161006f578063a9059cbb14610342578063b5aebc8014610362578063d24f8cdd14610375578063dd62ed3e146103a4578063f2fde38b146103c4578063f8626af8146103e457600080fd5b806379cc6790146102bd5780638da5cb5b146102dd57806395d89b4114610305578063a457c2d71461031a578063a6f2ae3a1461033a57600080fd5b806339509351116100fd57806339509351146101fb57806340c10f191461021b57806342966c681461023d57806363bd1d4a1461025d57806370a0823114610272578063715018a6146102a857600080fd5b806306fdde0314610145578063095ea7b31461017057806318160ddd146101a057806323b872dd146101bf578063313ce567146101df57600080fd5b3661014057005b600080fd5b34801561015157600080fd5b5061015a610404565b60405161016791906110e2565b60405180910390f35b34801561017c57600080fd5b5061019061018b366004611118565b610496565b6040519015158152602001610167565b3480156101ac57600080fd5b506002545b604051908152602001610167565b3480156101cb57600080fd5b506101906101da366004611142565b6104b0565b3480156101eb57600080fd5b5060405160008152602001610167565b34801561020757600080fd5b50610190610216366004611118565b610546565b34801561022757600080fd5b5061023b610236366004611118565b610568565b005b34801561024957600080fd5b5061023b61025836600461117e565b61057e565b34801561026957600080fd5b5061023b61058b565b34801561027e57600080fd5b506101b161028d366004611197565b6001600160a01b031660009081526020819052604090205490565b3480156102b457600080fd5b5061023b6105df565b3480156102c957600080fd5b5061023b6102d8366004611118565b6105f3565b3480156102e957600080fd5b506005546040516001600160a01b039091168152602001610167565b34801561031157600080fd5b5061015a610608565b34801561032657600080fd5b50610190610335366004611118565b610617565b61023b610692565b34801561034e57600080fd5b5061019061035d366004611118565b610714565b61023b6103703660046111c8565b61078f565b34801561038157600080fd5b50610395610390366004611197565b610936565b60405161016793929190611279565b3480156103b057600080fd5b506101b16103bf3660046112ad565b6109eb565b3480156103d057600080fd5b5061023b6103df366004611197565b610a16565b3480156103f057600080fd5b506103956103ff36600461117e565b610a8c565b606060038054610413906112e0565b80601f016020809104026020016040519081016040528092919081815260200182805461043f906112e0565b801561048c5780601f106104615761010080835404028352916020019161048c565b820191906000526020600020905b81548152906001019060200180831161046f57829003601f168201915b5050505050905090565b6000336104a4818585610abf565b60019150505b92915050565b60006104c46005546001600160a01b031690565b6001600160a01b0316326001600160a01b0316146105245760405162461bcd60e51b8152602060048201526018602482015277596f752063616e6e6f74207472616e7366657220f09f909f60401b60448201526064015b60405180910390fd5b33610530858285610be4565b61053b858585610c5e565b506001949350505050565b6000336104a481858561055983836109eb565b6105639190611330565b610abf565b610570610e02565b61057a8282610e5c565b5050565b6105883382610f1b565b50565b610593610e02565b60006105a76005546001600160a01b031690565b6040519091506001600160a01b038216904780156108fc02916000818181858888f1935050505015801561057a573d6000803e3d6000fd5b6105e7610e02565b6105f1600061104a565b565b6105fe823383610be4565b61057a8282610f1b565b606060048054610413906112e0565b6000338161062582866109eb565b9050838110156106855760405162461bcd60e51b815260206004820152602560248201527f45524332303a2064656372656173656420616c6c6f77616e63652062656c6f77604482015264207a65726f60d81b606482015260840161051b565b61053b8286868403610abf565b34670de0b6b3a7640000146106dc5760405162461bcd60e51b815260206004820152601060248201526f3120f09f909f203d2031205a454e495160801b604482015260640161051b565b6106e7336001610e5c565b60405133907f25a027d4fd2742364c6c140aa4f98ffb075d141de8f24afb5583afb60aaba7dd90600090a2565b60006107286005546001600160a01b031690565b6001600160a01b0316326001600160a01b0316146107835760405162461bcd60e51b8152602060048201526018602482015277596f752063616e6e6f74207472616e7366657220f09f909f60401b604482015260640161051b565b336104a4818585610c5e565b604080516060810182523380825260208083018590526000918252602490528281206002015490928201906107c5903490611330565b9052336000908152602460209081526040909120825181546001600160a01b0319166001600160a01b03909116178155908201519192508291600182019061080d9082611391565b5060409190910151600290910155600854600060015b600a8110156108815782600682600a811061084057610840611451565b6003020160020154101561086f57600681600a811061086157610861611451565b600302016002015492508091505b8061087981611467565b915050610823565b5081836040015111156108ee5782600682600a81106108a2576108a2611451565b82516003919091029190910180546001600160a01b0319166001600160a01b03909216919091178155602082015160018201906108df9082611391565b50604082015181600201559050505b6020830151604080850151905133927f60a6960c249d262f28201b4612d8ca8c414fca10c2da3cee6adc55960c79fd5e9261092892611480565b60405180910390a250505050565b602460205260009081526040902080546001820180546001600160a01b039092169291610962906112e0565b80601f016020809104026020016040519081016040528092919081815260200182805461098e906112e0565b80156109db5780601f106109b0576101008083540402835291602001916109db565b820191906000526020600020905b8154815290600101906020018083116109be57829003601f168201915b5050505050908060020154905083565b6001600160a01b03918216600090815260016020908152604080832093909416825291909152205490565b610a1e610e02565b6001600160a01b038116610a835760405162461bcd60e51b815260206004820152602660248201527f4f776e61626c653a206e6577206f776e657220697320746865207a65726f206160448201526564647265737360d01b606482015260840161051b565b6105888161104a565b600681600a8110610a9c57600080fd5b6003020180546001820180546001600160a01b03909216935090610962906112e0565b6001600160a01b038316610b215760405162461bcd60e51b8152602060048201526024808201527f45524332303a20617070726f76652066726f6d20746865207a65726f206164646044820152637265737360e01b606482015260840161051b565b6001600160a01b038216610b825760405162461bcd60e51b815260206004820152602260248201527f45524332303a20617070726f766520746f20746865207a65726f206164647265604482015261737360f01b606482015260840161051b565b6001600160a01b0383811660008181526001602090815260408083209487168084529482529182902085905590518481527f8c5be1e5ebec7d5bd14f71427d1e84f3dd0314c0f7b2291e5b200ac8c7c3b92591015b60405180910390a3505050565b6000610bf084846109eb565b90506000198114610c585781811015610c4b5760405162461bcd60e51b815260206004820152601d60248201527f45524332303a20696e73756666696369656e7420616c6c6f77616e6365000000604482015260640161051b565b610c588484848403610abf565b50505050565b6001600160a01b038316610cc25760405162461bcd60e51b815260206004820152602560248201527f45524332303a207472616e736665722066726f6d20746865207a65726f206164604482015264647265737360d81b606482015260840161051b565b6001600160a01b038216610d245760405162461bcd60e51b815260206004820152602360248201527f45524332303a207472616e7366657220746f20746865207a65726f206164647260448201526265737360e81b606482015260840161051b565b6001600160a01b03831660009081526020819052604090205481811015610d9c5760405162461bcd60e51b815260206004820152602660248201527f45524332303a207472616e7366657220616d6f756e7420657863656564732062604482015265616c616e636560d01b606482015260840161051b565b6001600160a01b03848116600081815260208181526040808320878703905593871680835291849020805487019055925185815290927fddf252ad1be2c89b69c2b068fc378daa952ba7f163c4a11628f55a4df523b3ef910160405180910390a3610c58565b6005546001600160a01b031633146105f15760405162461bcd60e51b815260206004820181905260248201527f4f776e61626c653a2063616c6c6572206973206e6f7420746865206f776e6572604482015260640161051b565b6001600160a01b038216610eb25760405162461bcd60e51b815260206004820152601f60248201527f45524332303a206d696e7420746f20746865207a65726f206164647265737300604482015260640161051b565b8060026000828254610ec49190611330565b90915550506001600160a01b038216600081815260208181526040808320805486019055518481527fddf252ad1be2c89b69c2b068fc378daa952ba7f163c4a11628f55a4df523b3ef910160405180910390a35050565b6001600160a01b038216610f7b5760405162461bcd60e51b815260206004820152602160248201527f45524332303a206275726e2066726f6d20746865207a65726f206164647265736044820152607360f81b606482015260840161051b565b6001600160a01b03821660009081526020819052604090205481811015610fef5760405162461bcd60e51b815260206004820152602260248201527f45524332303a206275726e20616d6f756e7420657863656564732062616c616e604482015261636560f01b606482015260840161051b565b6001600160a01b0383166000818152602081815260408083208686039055600280548790039055518581529192917fddf252ad1be2c89b69c2b068fc378daa952ba7f163c4a11628f55a4df523b3ef9101610bd7565b505050565b600580546001600160a01b038381166001600160a01b0319831681179093556040519116919082907f8be0079c531659141344cd1fd0a4f28419497f9722a3daafe3b4186f6b6457e090600090a35050565b6000815180845260005b818110156110c2576020818501810151868301820152016110a6565b506000602082860101526020601f19601f83011685010191505092915050565b6020815260006110f5602083018461109c565b9392505050565b80356001600160a01b038116811461111357600080fd5b919050565b6000806040838503121561112b57600080fd5b611134836110fc565b946020939093013593505050565b60008060006060848603121561115757600080fd5b611160846110fc565b925061116e602085016110fc565b9150604084013590509250925092565b60006020828403121561119057600080fd5b5035919050565b6000602082840312156111a957600080fd5b6110f5826110fc565b634e487b7160e01b600052604160045260246000fd5b6000602082840312156111da57600080fd5b813567ffffffffffffffff808211156111f257600080fd5b818401915084601f83011261120657600080fd5b813581811115611218576112186111b2565b604051601f8201601f19908116603f01168101908382118183101715611240576112406111b2565b8160405282815287602084870101111561125957600080fd5b826020860160208301376000928101602001929092525095945050505050565b6001600160a01b038416815260606020820181905260009061129d9083018561109c565b9050826040830152949350505050565b600080604083850312156112c057600080fd5b6112c9836110fc565b91506112d7602084016110fc565b90509250929050565b600181811c908216806112f457607f821691505b60208210810361131457634e487b7160e01b600052602260045260246000fd5b50919050565b634e487b7160e01b600052601160045260246000fd5b808201808211156104aa576104aa61131a565b601f82111561104557600081815260208120601f850160051c8101602086101561136a5750805b601f850160051c820191505b8181101561138957828155600101611376565b505050505050565b815167ffffffffffffffff8111156113ab576113ab6111b2565b6113bf816113b984546112e0565b84611343565b602080601f8311600181146113f457600084156113dc5750858301515b600019600386901b1c1916600185901b178555611389565b600085815260208120601f198616915b8281101561142357888601518255948401946001909101908401611404565b50858210156114415787850151600019600388901b60f8161c191681555b5050505050600190811b01905550565b634e487b7160e01b600052603260045260246000fd5b6000600182016114795761147961131a565b5060010190565b604081526000611493604083018561109c565b9050826020830152939250505056fea264697066735822122097bebf446e7278b090b2af5962c2b7989d68a5d2d214e9d23cc08e63f699ca1364736f6c63430008130033",
  "linkReferences": {},
  "deployedLinkReferences": {}
}